{
  "transactions": [
    {
      "hash": "0x70b8f4b7000385c2c04d8615d7eb8392dd33b79211e11eee30d2dc863c0acdb6",
      "transactionType": "CALL",
      "contractName": null,
      "contractAddress": "0x829f02110c49edbcf393a7cd0f7cda2f56b341d5",
      "function": "addToWhiteList(address)",
      "arguments": [
        "0x790ac11183ddE23163b307E3F7440F2460526957"
      ],
      "transaction": {
        "from": "0x1d1e94634fbcb767ce8650269b2c4d33280f0130",
        "to": "0x829f02110c49edbcf393a7cd0f7cda2f56b341d5",
        "gas": "0x10851",
        "value": "0x0",
        "input": "0x47ee0394000000000000000000000000790ac11183dde23163b307e3f7440f2460526957",
        "nonce": "0x253",
        "chainId": "0x2105"
      },
      "additionalContracts": [],
      "isFixedGasLimit": false
    },
    {
      "hash": "0x719c9a81002ba6c4c2b93dd8613c6156cb79b7965f1d9dd4dd095cb12e2b01aa",
      "transactionType": "CALL",
      "contractName": null,
      "contractAddress": "0x829f02110c49edbcf393a7cd0f7cda2f56b341d5",
      "function": "cashIn()",
      "arguments": [],
      "transaction": {
        "from": "0x1d1e94634fbcb767ce8650269b2c4d33280f0130",
        "to": "0x829f02110c49edbcf393a7cd0f7cda2f56b341d5",
        "gas": "0x12e8e",
        "value": "0x1bc16d674ec80000",
        "input": "0x1e580615",
        "nonce": "0x254",
        "chainId": "0x2105"
      },
      "additionalContracts": [],
      "isFixedGasLimit": false
    },
    {
      "hash": "0x8b3a9bbb0df4c99bfafdd5445cb868c9a1f5ced5e487dfc235f3b6e289ad5cdb",
      "transactionType": "CALL",
      "contractName": null,
      "contractAddress": "0x829f02110c49edbcf393a7cd0f7cda2f56b341d5",
      "function": "transfer(address,uint256)",
      "arguments": [
        "0x790ac11183ddE23163b307E3F7440F2460526957",
        "2000000000000000000"
      ],
      "transaction": {
        "from": "0x1d1e94634fbcb767ce8650269b2c4d33280f0130",
        "to": "0x829f02110c49edbcf393a7cd0f7cda2f56b341d5",
        "gas": "0x108f8",
        "value": "0x0",
        "input": "0xa9059cbb000000000000000000000000790ac11183dde23163b307e3f7440f24605269570000000000000000000000000000000000000000000000001bc16d674ec80000",
        "nonce": "0x255",
        "chainId": "0x2105"
      },
      "additionalContracts": [],
      "isFixedGasLimit": false
    },
    {
      "hash": "0x52a67bd8e436032f7435e0b95aabf1d9a6fceed72d043b30fd0728e101d420d8",
      "transactionType": "CALL",
      "contractName": null,
      "contractAddress": "0x829f02110c49edbcf393a7cd0f7cda2f56b341d5",
      "function": "cashOut(uint256)",
      "arguments": [
        "2000000000000000000"
      ],
      "transaction": {
        "from": "0x790ac11183dde23163b307e3f7440f2460526957",
        "to": "0x829f02110c49edbcf393a7cd0f7cda2f56b341d5",
        "gas": "0xf935",
        "value": "0x0",
        "input": "0x5c7b79f50000000000000000000000000000000000000000000000001bc16d674ec80000",
        "nonce": "0x7",
        "chainId": "0x2105"
      },
      "additionalContracts": [],
      "isFixedGasLimit": false
    }
  ],
  "receipts": [
    {
      "status": "0x1",
      "cumulativeGasUsed": "0xbaedc1",
      "logs": [],
      "logsBloom": "0x00000000000000000000000000000000000000000000000000000000000000000000000000000000000000000000000000000000000000000000000000000000000000000000000000000000000000000000000000000000000000000000000000000000000000000000000000000000000000000000000000000000000000000000000000000000000000000000000000000000000000000000000000000000000000000000000000000000000000000000000000000000000000000000000000000000000000000000000000000000000000000000000000000000000000000000000000000000000000000000000000000000000000000000000000000000",
      "type": "0x0",
      "transactionHash": "0x70b8f4b7000385c2c04d8615d7eb8392dd33b79211e11eee30d2dc863c0acdb6",
      "transactionIndex": "0x5f",
      "blockHash": "0xa80dd5e837ede88c660054c10cbdc06b4fea8862267ad86bc237a14bd6df73d1",
      "blockNumber": "0x13d235a",
      "gasUsed": "0xb4bb",
      "effectiveGasPrice": "0x486679",
      "from": "0x1d1e94634fbcb767ce8650269b2c4d33280f0130",
      "to": "0x829f02110c49edbcf393a7cd0f7cda2f56b341d5",
      "contractAddress": null,
      "l1BaseFeeScalar": "0x8dd",
      "l1BlobBaseFee": "0x1",
      "l1BlobBaseFeeScalar": "0x101c12",
      "l1Fee": "0x6fe4132db",
      "l1GasPrice": "0x1ed20f6e1",
      "l1GasUsed": "0x640"
    },
    {
      "status": "0x1",
      "cumulativeGasUsed": "0x38ac73",
      "logs": [
        {
          "address": "0x829f02110c49edbcf393a7cd0f7cda2f56b341d5",
          "topics": [
            "0xddf252ad1be2c89b69c2b068fc378daa952ba7f163c4a11628f55a4df523b3ef",
            "0x0000000000000000000000000000000000000000000000000000000000000000",
            "0x0000000000000000000000001d1e94634fbcb767ce8650269b2c4d33280f0130"
          ],
          "data": "0x0000000000000000000000000000000000000000000000001bc16d674ec80000",
          "blockHash": "0xb7935803fdb4135acbfee0c904b3ac8b89e580ef15b91bb001a620a1dc4217e1",
          "blockNumber": "0x13d235e",
          "transactionHash": "0x719c9a81002ba6c4c2b93dd8613c6156cb79b7965f1d9dd4dd095cb12e2b01aa",
          "transactionIndex": "0x1b",
          "logIndex": "0x31",
          "removed": false
        },
        {
          "address": "0x829f02110c49edbcf393a7cd0f7cda2f56b341d5",
          "topics": [
            "0xb61d00fdfee32467c7d81db64c811ae60c104c346debf36a14afe84b8fce59e5"
          ],
          "data": "0x0000000000000000000000001d1e94634fbcb767ce8650269b2c4d33280f01300000000000000000000000000000000000000000000000001bc16d674ec80000",
          "blockHash": "0xb7935803fdb4135acbfee0c904b3ac8b89e580ef15b91bb001a620a1dc4217e1",
          "blockNumber": "0x13d235e",
          "transactionHash": "0x719c9a81002ba6c4c2b93dd8613c6156cb79b7965f1d9dd4dd095cb12e2b01aa",
          "transactionIndex": "0x1b",
          "logIndex": "0x32",
          "removed": false
        }
      ],
      "logsBloom": "0x00000000000000000000000000000000000000000000000000000000000000000000000000000000000000000000000000000000000000000100000000008000000000000000000000000208000000000000000000000000000000000000000000000000020000000000000000000800000000000000000000000010000000000400000000000000000000800000000000000000000000000000000000000000000000000400000000000008000000000000000000000000000000000000000000000002000002000000000000000000000000000000000000000000000020000000000000000000000000000000000000000000000000000000000000000020",
      "type": "0x0",
      "transactionHash": "0x719c9a81002ba6c4c2b93dd8613c6156cb79b7965f1d9dd4dd095cb12e2b01aa",
      "transactionIndex": "0x1b",
      "blockHash": "0xb7935803fdb4135acbfee0c904b3ac8b89e580ef15b91bb001a620a1dc4217e1",
      "blockNumber": "0x13d235e",
      "gasUsed": "0xdb0c",
      "effectiveGasPrice": "0x486679",
      "from": "0x1d1e94634fbcb767ce8650269b2c4d33280f0130",
      "to": "0x829f02110c49edbcf393a7cd0f7cda2f56b341d5",
      "contractAddress": null,
      "l1BaseFeeScalar": "0x8dd",
      "l1BlobBaseFee": "0x1",
      "l1BlobBaseFeeScalar": "0x101c12",
      "l1Fee": "0x6fe4132db",
      "l1GasPrice": "0x1ed20f6e1",
      "l1GasUsed": "0x640"
    },
    {
      "status": "0x1",
      "cumulativeGasUsed": "0x600cda",
      "logs": [
        {
          "address": "0x829f02110c49edbcf393a7cd0f7cda2f56b341d5",
          "topics": [
            "0xddf252ad1be2c89b69c2b068fc378daa952ba7f163c4a11628f55a4df523b3ef",
            "0x0000000000000000000000001d1e94634fbcb767ce8650269b2c4d33280f0130",
            "0x000000000000000000000000790ac11183dde23163b307e3f7440f2460526957"
          ],
          "data": "0x0000000000000000000000000000000000000000000000001bc16d674ec80000",
          "blockHash": "0xb72ba34d3b665db8145502510861df5cdbfe15d968ecec2c614ed2c41bb83305",
          "blockNumber": "0x13d2362",
          "transactionHash": "0x8b3a9bbb0df4c99bfafdd5445cb868c9a1f5ced5e487dfc235f3b6e289ad5cdb",
          "transactionIndex": "0x2d",
          "logIndex": "0x7c",
          "removed": false
        }
      ],
      "logsBloom": "0x00000000000000000000000000000000000000000000000000000000000000000000000000000000000002000000000000000000000000000100000000000000000000100000000000000208000000000000000000000000000000000000000000000000000000000000000000000000000000000000000000000010000000000420000000000000000000800000000000000000000000000000000000000000000000000000000000000000000000000000000000000000000000000000000000000002000002000000000000000000000000000000000000000000000000000000000000000000000000000000000000000000000000000000000000000020",
      "type": "0x0",
      "transactionHash": "0x8b3a9bbb0df4c99bfafdd5445cb868c9a1f5ced5e487dfc235f3b6e289ad5cdb",
      "transactionIndex": "0x2d",
      "blockHash": "0xb72ba34d3b665db8145502510861df5cdbfe15d968ecec2c614ed2c41bb83305",
      "blockNumber": "0x13d2362",
      "gasUsed": "0xbfd6",
      "effectiveGasPrice": "0x486679",
      "from": "0x1d1e94634fbcb767ce8650269b2c4d33280f0130",
      "to": "0x829f02110c49edbcf393a7cd0f7cda2f56b341d5",
      "contractAddress": null,
      "l1BaseFeeScalar": "0x8dd",
      "l1BlobBaseFee": "0x1",
      "l1BlobBaseFeeScalar": "0x101c12",
      "l1Fee": "0x6d25dd1ef",
      "l1GasPrice": "0x1e10a28e7",
      "l1GasUsed": "0x640"
    },
    {
      "status": "0x1",
      "cumulativeGasUsed": "0x5cb5a2",
      "logs": [
        {
          "address": "0x829f02110c49edbcf393a7cd0f7cda2f56b341d5",
          "topics": [
            "0xddf252ad1be2c89b69c2b068fc378daa952ba7f163c4a11628f55a4df523b3ef",
            "0x000000000000000000000000790ac11183dde23163b307e3f7440f2460526957",
            "0x0000000000000000000000000000000000000000000000000000000000000000"
          ],
          "data": "0x0000000000000000000000000000000000000000000000001bc16d674ec80000",
          "blockHash": "0xe2e03586ed2da8e68d79a99592fa3bf3ede4646d5bf5817e08386f9eaee5dd66",
          "blockNumber": "0x13d2366",
          "transactionHash": "0x52a67bd8e436032f7435e0b95aabf1d9a6fceed72d043b30fd0728e101d420d8",
          "transactionIndex": "0x2c",
          "logIndex": "0x63",
          "removed": false
        },
        {
          "address": "0x829f02110c49edbcf393a7cd0f7cda2f56b341d5",
          "topics": [
            "0x5dd085b6070b4cae004f84daafd199fd55b0bdfa11c3a802baffe89c2419d8c2"
          ],
          "data": "0x000000000000000000000000790ac11183dde23163b307e3f7440f24605269570000000000000000000000000000000000000000000000001bb3376cbbae0000",
          "blockHash": "0xe2e03586ed2da8e68d79a99592fa3bf3ede4646d5bf5817e08386f9eaee5dd66",
          "blockNumber": "0x13d2366",
          "transactionHash": "0x52a67bd8e436032f7435e0b95aabf1d9a6fceed72d043b30fd0728e101d420d8",
          "transactionIndex": "0x2c",
          "logIndex": "0x64",
          "removed": false
        }
      ],
      "logsBloom": "0x00000000002000000000000000000000000000000000000000000000000000000000000000000000000002000000000000000000000000000100000000000000000000100000000000000008000000000000000000000000000000000000000000000000020000000000000000000800000000000000000000000010000000000020000000000000000000800000000000000000000000000000000000000000000000000000000000000000000000002000000000000000000000000000000000000002000000000008000000000000000000000000000000000000000020000000000000000000000000000000000000000000000000000000000000000020",
      "type": "0x0",
      "transactionHash": "0x52a67bd8e436032f7435e0b95aabf1d9a6fceed72d043b30fd0728e101d420d8",
      "transactionIndex": "0x2c",
      "blockHash": "0xe2e03586ed2da8e68d79a99592fa3bf3ede4646d5bf5817e08386f9eaee5dd66",
      "blockNumber": "0x13d2366",
      "gasUsed": "0xb46d",
      "effectiveGasPrice": "0x486679",
      "from": "0x790ac11183dde23163b307e3f7440f2460526957",
      "to": "0x829f02110c49edbcf393a7cd0f7cda2f56b341d5",
      "contractAddress": null,
      "l1BaseFeeScalar": "0x8dd",
      "l1BlobBaseFee": "0x1",
      "l1BlobBaseFeeScalar": "0x101c12",
      "l1Fee": "0x6c6608d3a",
      "l1GasPrice": "0x1ddbcb976",
      "l1GasUsed": "0x640"
    }
  ],
  "libraries": [],
  "pending": [],
  "returns": {},
  "timestamp": 1728357300,
  "chain": 8453,
  "commit": "2c6ef46"
}