{
  "transactions": [
    {
      "hash": "0x83fd802351b7a44fbf9cbb7effa70c1e95b9de7a0c1cdc01c819206d5f4b97a4",
      "transactionType": "CALL",
      "contractName": null,
      "contractAddress": "0xacfa296e66b65dae12cd63aeef53be8d5cc0f329",
      "function": "cashIn()",
      "arguments": [],
      "transaction": {
        "from": "0x1d1e94634fbcb767ce8650269b2c4d33280f0130",
        "to": "0xacfa296e66b65dae12cd63aeef53be8d5cc0f329",
        "gas": "0xd26c",
        "value": "0x1bc16d674ec80000",
        "input": "0x1e580615",
        "nonce": "0x24f",
        "chainId": "0x2105"
      },
      "additionalContracts": [],
      "isFixedGasLimit": false
    },
    {
      "hash": "0x72ec844b1d44308177e0f413366663ea8089d6bc8332c330353b235547ea1886",
      "transactionType": "CALL",
      "contractName": null,
      "contractAddress": "0xacfa296e66b65dae12cd63aeef53be8d5cc0f329",
      "function": "transfer(address,uint256)",
      "arguments": [
        "0x790ac11183ddE23163b307E3F7440F2460526957",
        "3999999999999999998"
      ],
      "transaction": {
        "from": "0x1d1e94634fbcb767ce8650269b2c4d33280f0130",
        "to": "0xacfa296e66b65dae12cd63aeef53be8d5cc0f329",
        "gas": "0x108fb",
        "value": "0x0",
        "input": "0xa9059cbb000000000000000000000000790ac11183dde23163b307e3f7440f24605269570000000000000000000000000000000000000000000000003782dace9d8ffffe",
        "nonce": "0x250",
        "chainId": "0x2105"
      },
      "additionalContracts": [],
      "isFixedGasLimit": false
    }
  ],
  "receipts": [
    {
      "status": "0x1",
      "cumulativeGasUsed": "0x457d05",
      "logs": [
        {
          "address": "0xacfa296e66b65dae12cd63aeef53be8d5cc0f329",
          "topics": [
            "0xddf252ad1be2c89b69c2b068fc378daa952ba7f163c4a11628f55a4df523b3ef",
            "0x0000000000000000000000000000000000000000000000000000000000000000",
            "0x0000000000000000000000001d1e94634fbcb767ce8650269b2c4d33280f0130"
          ],
          "data": "0x0000000000000000000000000000000000000000000000001bc16d674ec80000",
          "blockHash": "0x85b91ac06d36c3de0d15796b33a7b5b19965bad2f1b0320aaee4170e96c4287c",
          "blockNumber": "0x13d1c7a",
          "transactionHash": "0x83fd802351b7a44fbf9cbb7effa70c1e95b9de7a0c1cdc01c819206d5f4b97a4",
          "transactionIndex": "0x1a",
          "logIndex": "0x45",
          "removed": false
        },
        {
          "address": "0xacfa296e66b65dae12cd63aeef53be8d5cc0f329",
          "topics": [
            "0xb61d00fdfee32467c7d81db64c811ae60c104c346debf36a14afe84b8fce59e5"
          ],
          "data": "0x0000000000000000000000001d1e94634fbcb767ce8650269b2c4d33280f01300000000000000000000000000000000000000000000000001bc16d674ec80000",
          "blockHash": "0x85b91ac06d36c3de0d15796b33a7b5b19965bad2f1b0320aaee4170e96c4287c",
          "blockNumber": "0x13d1c7a",
          "transactionHash": "0x83fd802351b7a44fbf9cbb7effa70c1e95b9de7a0c1cdc01c819206d5f4b97a4",
          "transactionIndex": "0x1a",
          "logIndex": "0x46",
          "removed": false
        }
      ],
      "logsBloom": "0x00000000000000000000000000000000000000000000000000000000000000000000000000000000000000000000000000000000000000000000000000008000000000000000000040000208000000000000000000000000000000000000000000000000020000010008000000000800000000000000000000000010000000000400000000000000000000000000000000000000000000000000000000000000000000000400000000000008000000000000000000000000000000000000000000000002000002000000000000000000000000000000000000000000000020000000000000000000000000000000000000000000000000000000000000000000",
      "type": "0x0",
      "transactionHash": "0x83fd802351b7a44fbf9cbb7effa70c1e95b9de7a0c1cdc01c819206d5f4b97a4",
      "transactionIndex": "0x1a",
      "blockHash": "0x85b91ac06d36c3de0d15796b33a7b5b19965bad2f1b0320aaee4170e96c4287c",
      "blockNumber": "0x13d1c7a",
      "gasUsed": "0x9858",
      "effectiveGasPrice": "0x4a3d47",
      "from": "0x1d1e94634fbcb767ce8650269b2c4d33280f0130",
      "to": "0xacfa296e66b65dae12cd63aeef53be8d5cc0f329",
      "contractAddress": null,
      "l1BaseFeeScalar": "0x8dd",
      "l1BlobBaseFee": "0x1",
      "l1BlobBaseFeeScalar": "0x101c12",
      "l1Fee": "0x7ae4a4070",
      "l1GasPrice": "0x21d9e3631",
      "l1GasUsed": "0x640"
    },
    {
      "status": "0x1",
      "cumulativeGasUsed": "0x46aa7c",
      "logs": [
        {
          "address": "0xacfa296e66b65dae12cd63aeef53be8d5cc0f329",
          "topics": [
            "0xddf252ad1be2c89b69c2b068fc378daa952ba7f163c4a11628f55a4df523b3ef",
            "0x0000000000000000000000001d1e94634fbcb767ce8650269b2c4d33280f0130",
            "0x000000000000000000000000790ac11183dde23163b307e3f7440f2460526957"
          ],
          "data": "0x0000000000000000000000000000000000000000000000003782dace9d8ffffe",
          "blockHash": "0x85b91ac06d36c3de0d15796b33a7b5b19965bad2f1b0320aaee4170e96c4287c",
          "blockNumber": "0x13d1c7a",
          "transactionHash": "0x72ec844b1d44308177e0f413366663ea8089d6bc8332c330353b235547ea1886",
          "transactionIndex": "0x1c",
          "logIndex": "0x48",
          "removed": false
        }
      ],
      "logsBloom": "0x00000000000000000000000000000000000000000000000000000000000000000000000000000000000002000000000000000000000000000000000000000000000000100000000040000208000000000000000000000000000000000000000000000000000000010008000000000000000000000000000000000010000000000420000000000000000000000000000000000000000000000000000000000000000000000000000000000000000000000000000000000000000000000000000000000002000002000000000000000000000000000000000000000000000000000000000000000000000000000000000000000000000000000000000000000000",
      "type": "0x0",
      "transactionHash": "0x72ec844b1d44308177e0f413366663ea8089d6bc8332c330353b235547ea1886",
      "transactionIndex": "0x1c",
      "blockHash": "0x85b91ac06d36c3de0d15796b33a7b5b19965bad2f1b0320aaee4170e96c4287c",
      "blockNumber": "0x13d1c7a",
      "gasUsed": "0xbfd8",
      "effectiveGasPrice": "0x4a3d47",
      "from": "0x1d1e94634fbcb767ce8650269b2c4d33280f0130",
      "to": "0xacfa296e66b65dae12cd63aeef53be8d5cc0f329",
      "contractAddress": null,
      "l1BaseFeeScalar": "0x8dd",
      "l1BlobBaseFee": "0x1",
      "l1BlobBaseFeeScalar": "0x101c12",
      "l1Fee": "0x7ae4a4070",
      "l1GasPrice": "0x21d9e3631",
      "l1GasUsed": "0x640"
    }
  ],
  "libraries": [],
  "pending": [],
  "returns": {},
  "timestamp": 1728353757,
  "chain": 8453,
  "commit": "2c6ef46"
}