{
  "transactions": [
    {
      "hash": "0x1c567f31b9e71fa751367f94bc0623ba26c184b562daad1047fd858c397110c9",
      "transactionType": "CALL",
      "contractName": null,
      "contractAddress": "0x829f02110c49edbcf393a7cd0f7cda2f56b341d5",
      "function": "withdraw(uint256)",
      "arguments": [
        "4000000000000000"
      ],
      "transaction": {
        "from": "0x1d1e94634fbcb767ce8650269b2c4d33280f0130",
        "to": "0x829f02110c49edbcf393a7cd0f7cda2f56b341d5",
        "gas": "0xba8a",
        "value": "0x0",
        "input": "0x2e1a7d4d000000000000000000000000000000000000000000000000000e35fa931a0000",
        "nonce": "0x256",
        "chainId": "0x2105"
      },
      "additionalContracts": [],
      "isFixedGasLimit": false
    }
  ],
  "receipts": [
    {
      "status": "0x1",
      "cumulativeGasUsed": "0x9b000c",
      "logs": [
        {
          "address": "0x829f02110c49edbcf393a7cd0f7cda2f56b341d5",
          "topics": [
            "0x884edad9ce6fa2440d8a54cc123490eb96d2768479d49ff9c7366125a9424364"
          ],
          "data": "0x0000000000000000000000001d1e94634fbcb767ce8650269b2c4d33280f0130000000000000000000000000000000000000000000000000000e35fa931a0000",
          "blockHash": "0xe81591d7431040ea2fb8461a92b6f5b2bfddad4e0bb38c1a5edc4badb8fdfab3",
          "blockNumber": "0x13d2383",
          "transactionHash": "0x1c567f31b9e71fa751367f94bc0623ba26c184b562daad1047fd858c397110c9",
          "transactionIndex": "0x50",
          "logIndex": "0x9f",
          "removed": false
        }
      ],
      "logsBloom": "0x00000000000000000000000000000000000000000000000000100000000000000000000000000000000000000000000000000000000000000100000000000000000000000000000000000000000000000000000000000000000000000000000000000000000000000000000000000000000000000000000000000000000004001000000000000000000000800000000000000000000000000000000000000000000000000000000000000000000000000000000000000000000000000000000000000000000000000000000000000000000000000000000000000000000000000000000000000000000000000000000000000000000000000000000000000020",
      "type": "0x0",
      "transactionHash": "0x1c567f31b9e71fa751367f94bc0623ba26c184b562daad1047fd858c397110c9",
      "transactionIndex": "0x50",
      "blockHash": "0xe81591d7431040ea2fb8461a92b6f5b2bfddad4e0bb38c1a5edc4badb8fdfab3",
      "blockNumber": "0x13d2383",
      "gasUsed": "0x870e",
      "effectiveGasPrice": "0x478472",
      "from": "0x1d1e94634fbcb767ce8650269b2c4d33280f0130",
      "to": "0x829f02110c49edbcf393a7cd0f7cda2f56b341d5",
      "contractAddress": null,
      "l1BaseFeeScalar": "0x8dd",
      "l1BlobBaseFee": "0x1",
      "l1BlobBaseFeeScalar": "0x101c12",
      "l1Fee": "0x67c5099da",
      "l1GasPrice": "0x1c9562c4c",
      "l1GasUsed": "0x640"
    }
  ],
  "libraries": [],
  "pending": [],
  "returns": {},
  "timestamp": 1728357358,
  "chain": 8453,
  "commit": "2c6ef46"
}